:100000000C9462000C948A000C948A000C948A0070
:100010000C948A000C948A000C948A000C948A0038
:100020000C948A000C948C000C948A000C948A0026
:100030000C948A000C948A000C948A000C948A0018
:100040000C94EA010C948A000C94B6020C948A0079
:100050000C948A000C948A000C948A000C948A00F8
:100060000C948A000C948A000000000024002700F1
:100070002A0000000000250028002B0000000000DE
:1000800023002600290004040404040404040202DA
:100090000202020203030303030301020408102007
:1000A0004080010204081020010204081020000012
:1000B0000007000201000003040600000000000029
:1000C00000003B0411241FBECFEFD8E0DEBFCDBF40
:1000D00011E0A0E0B1E0E2ECFAE002C005900D9280
:1000E000AC36B107D9F714E0ACE6B1E001C01D921F
:1000F000A531B107E1F710E0C4ECD0E004C02297CD
:10010000FE010E945B05C23CD107C9F70E94E301D2
:100110000C945F050C94000078941F920F920FB618
:100120000F921124DF92EF92FF920F931F932F9360
:100130003F934F935F936F937F938F939F93AF936F
:10014000BF93CF93DF93EF93FF93809170008E7FE7
:1001500080937000A0917003B091710310917203AD
:10016000012F0095612F70E060957095C0915F013F
:10017000D091600140916E0350916F032FE730E002
:10018000DD249AE2E92E8AE2F82E4115510509F0A4
:100190002BC02332310508F44FC08C9180238C93FF
:1001A00080E09E2D9A95F1F78F5F8B30D1F7235227
:1001B00030408C91812B8C938F2D8A95F1F7F89498
:1001C0000C9006220C928BE000C09DE000009A95F6
:1001D000E9F70C9006220894D79408F4012A0C92AF
:1001E0008A9599F7789422C02B30310528F45093E2
:1001F0006F0340936E0324C02B503040FA01E55941
:10020000FE4F8081F8940C9006220C929BE000C077
:10021000EDE00000EA95E9F70C9006220894879536
:1002200008F4012A0C929A9599F778944F5F5F4FE2
:10023000C417D50708F0A9CF10926F0310926E0370
:1002400080917000816080937000FF91EF91DF9149
:10025000CF91BF91AF919F918F917F916F915F915E
:100260004F913F912F911F910F91FF90EF90DF9051
:100270000F900FBE0F901F90189581E080936D0333
:1002800080915E01482F50E0FA01EA57FF4FE49158
:10029000F0E0EE0FFF1FEE58FF4F259134913093A1
:1002A00071032093700346565F4FFA019491909327
:1002B000720361E00E949602E0E7F0E080818160D5
:1002C0008083089560935E0108951F93CF93DF9319
:1002D000EC01162F80916D03882311F40E943D01DB
:1002E000CE01019780509240A0F420915F0130919F
:1002F0006001CE014C2F892FC217D30718F4C90112
:10030000422F892F40935F0180936001C559DE4FD2
:100310001883DF91CF911F910895CB01642F0E9424
:100320006501089582E094E00E94EC038823D1F3F4
:1003300082E094E00E940004482F8093730390931E
:1003400074038CE693E062E070E00E948D0182E02D
:1003500094E00E94B40468E270E080E090E00E94C3
:10036000320208950F931F930CE613E0C8016BE06F
:100370000E946201C80161E070E047ED0E948D01BA
:1003800002E014E0C80140E855E260E070E00E943D
:10039000F302C80160E071E00E94CB04C8010E9432
:1003A000B404C80162E171E00E94CB04C8016AE1B3
:1003B00071E00E94CB04C80166E371E00E94CB04A7
:1003C0001F910F9108950E945C020E94B2010E9449
:1003D0009201FDCF1F920F920FB60F9211242F930F
:1003E0003F938F939F93AF93BF93809179039091A5
:1003F0007A03A0917B03B0917C0330917D03019639
:10040000A11DB11D232F2D5F2D3720F02D570196F3
:10041000A11DB11D20937D038093790390937A03EE
:10042000A0937B03B0937C03809175039091760336
:10043000A0917703B09178030196A11DB11D80931F
:10044000750390937603A0937703B0937803BF91DD
:10045000AF919F918F913F912F910F900FBE0F9071
:100460001F901895EF92FF920F931F937B018C01C1
:100470008FB7F8944091790350917A0360917B0390
:1004800070917C038FBF2FB7F8948091790390917E
:100490007A03A0917B03B0917C032FBF841B950B43
:1004A000A60BB70BE816F9060A071B0760F71F91A2
:1004B0000F91FF90EF900895789484B5826084BD89
:1004C00084B5816084BD85B5826085BD85B5816058
:1004D00085BDEEE6F0E0808181608083E1E8F0E0B8
:1004E000808182608083808181608083E0E8F0E0A9
:1004F000808181608083E1EBF0E080818460808393
:10050000E0EBF0E0808181608083EAE7F0E08081C9
:100510008460808380818260808380818160808329
:100520008081806880831092C1000895282F30E078
:10053000C90186569F4FFC0194912A573F4FF901FC
:100540008491882391F0E82FF0E0EE0FFF1FE85927
:10055000FF4FA591B491662329F48C91909589233E
:100560008C9308958C91892B8C9308951F920F92F0
:100570000FB60F9211242F933F934F935F936F9376
:100580007F938F939F93AF93BF93EF93FF9340918C
:10059000C600E091FE03F091FF03CF01019660E8F1
:1005A00070E00E94F5049C01809100049091010488
:1005B0002817390739F0E258FC4F40833093FF0386
:1005C0002093FE03FF91EF91BF91AF919F918F9187
:1005D0007F916F915F914F913F912F910F900FBE3F
:1005E0000F901F9018955F926F927F928F929F92BB
:1005F000AF92BF92CF92DF92EF92FF920F931F9331
:10060000CF93DF93EC013A014B01413482E4580768
:100610008FE0680780E078070CF07FC060E874E83E
:100620008EE190E0A40193010E942A052150304000
:1006300040405040CA01B90122E030E040E050E0C3
:100640000E942A0559016A01A6019501209530955D
:100650004095509594E0220F331F441F551F9A95E3
:10066000D1F760E074E284EF90E00E942A05CA01AD
:10067000B9012FEF30E040E050E00E94D604A40121
:1006800093010E942A05C90181509F4F181619062F
:100690001CF4522E5A9403C055245394521A60E00D
:1006A00079E08DE390E0A40193010E942A05215096
:1006B000304040405040CA01B90122E030E040E003
:1006C00050E00E942A05209530954095509583E092
:1006D000220F331F441F551F8A95D1F760E074E243
:1006E00084EF90E00E942A05CA01B9012FEF30E0A3
:1006F00040E050E00E94D604A40193010E942A0524
:10070000C90181509F4F181619061CF4822F815081
:1007100002C081E0821B851500F5E885F98581E03E
:1007200090E00A8802C0880F991F0A94E2F780833C
:1007300060E079E08DE390E0A40193010E942A0536
:100740002150304040405040CA01B90122E030E021
:1007500040E050E00E942A0504C0E885F985108237
:100760009501EC81FD813083EE81FF812083EA8554
:10077000FB85208141E050E0CA010E8402C0880F51
:10078000991F0A94E2F7282B2083EA85FB852081B4
:10079000CA010F8402C0880F991F0A94E2F7282B20
:1007A0002083EA85FB858081088802C0440F551F9D
:1007B0000A94E2F7842B8083DF91CF911F910F91F0
:1007C000FF90EF90DF90CF90BF90AF909F908F9071
:1007D0007F906F905F900895DC011296ED91FC91EF
:1007E0001397E058FF4F8191919180589F4F20813E
:1007F0003181821B930B60E870E00E94F50408953C
:10080000CF93DF93DC011296ED91FC911397EF01EA
:10081000CE57DF4F48815981E058FF4F8081918149
:10082000E058F0408417950719F42FEF3FEF0CC004
:10083000E40FF51F2081CA01019660E870E00E9474
:10084000F5049983888330E0C901DF91CF91089541
:10085000FC01A085B18521898C9190E0022E02C017
:10086000959587950A94E2F780FFF6CF0484F58585
:10087000E02D6083089585E691E0909303048093D2
:1008800002048EE793E0909305048093040485ECC2
:1008900090E0909307048093060484EC90E090939A
:1008A00009048093080480EC90E090930B048093FB
:1008B0000A0481EC90E090930D0480930C0486EC84
:1008C00090E090930F0480930E0484E080931004D2
:1008D00083E08093110487E08093120485E0809385
:1008E000130481E08093140408950F931F93CF9312
:1008F000DF938C01EB0109C02196D801ED91FC91A9
:100900000190F081E02DC801099568816623A1F767
:10091000DF91CF911F910F910895EF92FF920F9366
:100920001F93CF93DF938C017B01EA010CC0D701A9
:100930006D917D01D801ED91FC910190F081E02D48
:10094000C80109952197209791F7DF91CF911F91C9
:100950000F91FF90EF900895DC01ED91FC910280E2
:10096000F381E02D099508950F931F938C01DC010D
:10097000ED91FC910190F081E02D6DE00995D80199
:10098000ED91FC910190F081E02DC8016AE009959C
:100990001F910F9108950F931F938C010E94AC0437
:1009A000C8010E94B4041F910F910895629FD00165
:1009B000739FF001829FE00DF11D649FE00DF11D1A
:1009C000929FF00D839FF00D749FF00D659FF00DC9
:1009D0009927729FB00DE11DF91F639FB00DE11DB6
:1009E000F91FBD01CF011124089597FB092E072699
:1009F0000AD077FD04D049D006D000201AF47095B3
:100A000061957F4F0895F6F7909581959F4F0895D2
:100A1000A1E21A2EAA1BBB1BFD010DC0AA1FBB1F02
:100A2000EE1FFF1FA217B307E407F50720F0A21B74
:100A3000B30BE40BF50B661F771F881F991F1A94E1
:100A400069F760957095809590959B01AC01BD010B
:100A5000CF01089597FB092E05260ED057FD04D02F
:100A6000D7DF0AD0001C38F4509540953095219579
:100A70003F4F4F4F5F4F0895F6F7909580957095D3
:100A800061957F4F8F4F9F4F0895AA1BBB1B51E16C
:100A900007C0AA1FBB1FA617B70710F0A61BB70BEE
:100AA000881F991F5A95A9F780959095BC01CD0193
:100AB0000895EE0FFF1F0590F491E02D0994F8942E
:020AC000FFCF66
:100AC20053657269616C546F446D7820726561641C
:100AD200790053796E7461783A00203132336320A1
:100AE2003A2075736520444D58206368616E6E65C7
:100AF2006C20313233002034357720203A20736560
:100B0200742063757272656E74206368616E6E65BF
:100B12006C20746F2076616C75652034350003108B
:0C0B22000000000000280475048D040091
:00000001FF
