:100000000C9461000C947E000C947E000C947E0095
:100010000C947E000C947E000C947E000C947E0068
:100020000C947E000C9480000C947E000C947E0056
:100030000C947E000C947E000C947E000C947E0048
:100040000C94DA010C947E000C947E000C947E00DB
:100050000C947E000C947E000C947E000C947E0028
:100060000C947E000C947E00000000002400270009
:100070002A0000000000250028002B0000000000DE
:1000800023002600290004040404040404040202DA
:100090000202020203030303030301020408102007
:1000A0004080010204081020010204081020000012
:1000B0000007000201000003040600000000000029
:1000C000000011241FBECFEFD8E0DEBFCDBF11E08E
:1000D000A0E0B1E0E0E5F5E002C005900D92A430AB
:1000E000B107D9F713E0A4E0B1E001C01D92A4313B
:1000F000B107E1F70E94D3010C94A6020C94000012
:1001000078941F920F920FB60F921124DF92EF9204
:10011000FF920F931F932F933F934F935F936F9390
:100120007F938F939F93AF93BF93CF93DF93EF937F
:10013000FF93809170008E7F80937000A0910803E0
:10014000B091090310910A03012F0095612F70E00F
:1001500060957095C0910101D09102014091060314
:10016000509107032FE730E0DD249AE2E92E8AE27E
:10017000F82E4115510509F02BC02332310508F442
:100180004FC08C9180238C9380E09E2D9A95F1F73F
:100190008F5F8B30D1F7235230408C91812B8C9321
:1001A0008F2D8A95F1F7F8940C9006220C928BE033
:1001B00000C09DE000009A95E9F70C900622089493
:1001C000D79408F4012A0C928A9599F7789422C062
:1001D0002B30310528F4509307034093060324C0C5
:1001E0002B503040FA01ED5FFE4F8081F8940C9067
:1001F00006220C929BE000C0EDE00000EA95E9F7D2
:100200000C9006220894879508F4012A0C929A957E
:1002100099F778944F5F5F4FC417D50708F0A9CFBF
:100220001092070310920603809170008160809302
:100230007000FF91EF91DF91CF91BF91AF919F91AE
:100240008F917F916F915F914F913F912F911F916E
:100250000F91FF90EF90DF900F900FBE0F901F90C7
:10026000189581E08093050380910001482F50E0AC
:10027000FA01EA57FF4FE491F0E0EE0FFF1FEE584E
:10028000FF4F25913491309309032093080346567C
:100290005F4FFA01949190930A0361E00E948602F5
:1002A000E0E7F0E080818160808308956093000141
:1002B00008951816190664F0809170008E7F80935F
:1002C000700010920503109202011092010108952E
:1002D00022E08130920714F080E092E090930201D6
:1002E0008093010180910503882311F40E9431015C
:1002F0000895CB010E94590108951F93CF93DF9376
:10030000EC01162F80910503882311F40E9431011E
:10031000CE01019780509240A0F4209101013091CC
:100320000201CE014C2F892FC217D30718F4C9013F
:10033000422F892F4093010180930201CD5FDE4F50
:100340001883DF91CF911F910895CB01642F0E94F4
:100350007D010895CF93DF93C0E0D0E084E093E087
:1003600061E070E04C2F0E94A5016AE070E080E03F
:1003700090E00E942202219681E0C030D80771F7F8
:10038000DF91CF9108950F931F9304E013E0C8010C
:1003900063E00E945601C80164E070E00E947901A8
:1003A0001F910F9108950E944C020E94C3010E9468
:1003B000AA01FDCF1F920F920FB60F9211242F9317
:1003C0003F938F939F93AF93BF9380910F0390912F
:1003D0001003A0911103B091120330911303019601
:1003E000A11DB11D232F2D5F2D3720F02D57019614
:1003F000A11DB11D2093130380930F03909310034D
:10040000A0931103B093120380910B0390910C03FE
:10041000A0910D03B0910E030196A11DB11D809313
:100420000B0390930C03A0930D03B0930E03BF91A5
:10043000AF919F918F913F912F910F900FBE0F9091
:100440001F901895EF92FF920F931F937B018C01E1
:100450008FB7F89440910F035091100360911103EE
:10046000709112038FBF2FB7F89480910F03909172
:100470001003A0911103B09112032FBF841B950BA1
:10048000A60BB70BE816F9060A071B0760F71F91C2
:100490000F91FF90EF900895789484B5826084BDA9
:1004A00084B5816084BD85B5826085BD85B5816078
:1004B00085BDEEE6F0E0808181608083E1E8F0E0D8
:1004C000808182608083808181608083E0E8F0E0C9
:1004D000808181608083E1EBF0E0808184608083B3
:1004E000E0EBF0E0808181608083EAE7F0E08081EA
:1004F000846080838081826080838081816080834A
:100500008081806880831092C1000895282F30E098
:10051000C90186569F4FFC0194912A573F4FF9011C
:100520008491882391F0E82FF0E0EE0FFF1FE85947
:10053000FF4FA591B491662329F48C91909589235E
:100540008C9308958C91892B8C930895F894FFCF08
:040550000310000094
:00000001FF
